:020000000328D3
:1000060083160313880183128801831687018312DE
:1000160087010F30831686008312861D1A28081161
:100026008810071007168710071187114328061C2A
:100036002828861828280619282808158814071439
:1000460007128714071187114328061C3628861CB9
:100056003628061936280811881007100712871047
:10006600071587114328061C4328861C4328061DAE
:1000760043280815881007140712871007118715DB
:040086000F284428D3
:02400E004A2F37
:00000001FF
